{
  "_format": "hh-sol-artifact-1",
  "contractName": "BusinessSharesToken",
  "sourceName": "contracts/BusinessSharesToken.sol",
  "abi": [
    {
      "inputs": [
        {
          "internalType": "string",
          "name": "tokenName",
          "type": "string"
        },
        {
          "internalType": "string",
          "name": "tokenSymbol",
          "type": "string"
        },
        {
          "internalType": "string",
          "name": "documentsURI",
          "type": "string"
        },
        {
          "internalType": "uint256",
          "name": "initialSupplyPercentage",
          "type": "uint256"
        },
        {
          "internalType": "uint256",
          "name": "_tokenPrice",
          "type": "uint256"
        }
      ],
      "stateMutability": "nonpayable",
      "type": "constructor"
    },
    {
      "inputs": [
        {
          "internalType": "address",
          "name": "spender",
          "type": "address"
        },
        {
          "internalType": "uint256",
          "name": "allowance",
          "type": "uint256"
        },
        {
          "internalType": "uint256",
          "name": "needed",
          "type": "uint256"
        }
      ],
      "name": "ERC20InsufficientAllowance",
      "type": "error"
    },
    {
      "inputs": [
        {
          "internalType": "address",
          "name": "sender",
          "type": "address"
        },
        {
          "internalType": "uint256",
          "name": "balance",
          "type": "uint256"
        },
        {
          "internalType": "uint256",
          "name": "needed",
          "type": "uint256"
        }
      ],
      "name": "ERC20InsufficientBalance",
      "type": "error"
    },
    {
      "inputs": [
        {
          "internalType": "address",
          "name": "approver",
          "type": "address"
        }
      ],
      "name": "ERC20InvalidApprover",
      "type": "error"
    },
    {
      "inputs": [
        {
          "internalType": "address",
          "name": "receiver",
          "type": "address"
        }
      ],
      "name": "ERC20InvalidReceiver",
      "type": "error"
    },
    {
      "inputs": [
        {
          "internalType": "address",
          "name": "sender",
          "type": "address"
        }
      ],
      "name": "ERC20InvalidSender",
      "type": "error"
    },
    {
      "inputs": [
        {
          "internalType": "address",
          "name": "spender",
          "type": "address"
        }
      ],
      "name": "ERC20InvalidSpender",
      "type": "error"
    },
    {
      "inputs": [
        {
          "internalType": "address",
          "name": "owner",
          "type": "address"
        }
      ],
      "name": "OwnableInvalidOwner",
      "type": "error"
    },
    {
      "inputs": [
        {
          "internalType": "address",
          "name": "account",
          "type": "address"
        }
      ],
      "name": "OwnableUnauthorizedAccount",
      "type": "error"
    },
    {
      "anonymous": false,
      "inputs": [
        {
          "indexed": true,
          "internalType": "address",
          "name": "owner",
          "type": "address"
        },
        {
          "indexed": true,
          "internalType": "address",
          "name": "spender",
          "type": "address"
        },
        {
          "indexed": false,
          "internalType": "uint256",
          "name": "value",
          "type": "uint256"
        }
      ],
      "name": "Approval",
      "type": "event"
    },
    {
      "anonymous": false,
      "inputs": [
        {
          "indexed": false,
          "internalType": "string",
          "name": "message",
          "type": "string"
        }
      ],
      "name": "BuyTokensDebug",
      "type": "event"
    },
    {
      "anonymous": false,
      "inputs": [
        {
          "indexed": true,
          "internalType": "address",
          "name": "previousOwner",
          "type": "address"
        },
        {
          "indexed": true,
          "internalType": "address",
          "name": "newOwner",
          "type": "address"
        }
      ],
      "name": "OwnershipTransferred",
      "type": "event"
    },
    {
      "anonymous": false,
      "inputs": [
        {
          "indexed": true,
          "internalType": "address",
          "name": "from",
          "type": "address"
        },
        {
          "indexed": true,
          "internalType": "address",
          "name": "to",
          "type": "address"
        },
        {
          "indexed": false,
          "internalType": "uint256",
          "name": "value",
          "type": "uint256"
        }
      ],
      "name": "Transfer",
      "type": "event"
    },
    {
      "inputs": [],
      "name": "MAX_TOTAL_SUPPLY",
      "outputs": [
        {
          "internalType": "uint256",
          "name": "",
          "type": "uint256"
        }
      ],
      "stateMutability": "view",
      "type": "function"
    },
    {
      "inputs": [
        {
          "internalType": "address",
          "name": "owner",
          "type": "address"
        },
        {
          "internalType": "address",
          "name": "spender",
          "type": "address"
        }
      ],
      "name": "allowance",
      "outputs": [
        {
          "internalType": "uint256",
          "name": "",
          "type": "uint256"
        }
      ],
      "stateMutability": "view",
      "type": "function"
    },
    {
      "inputs": [
        {
          "internalType": "address",
          "name": "spender",
          "type": "address"
        },
        {
          "internalType": "uint256",
          "name": "value",
          "type": "uint256"
        }
      ],
      "name": "approve",
      "outputs": [
        {
          "internalType": "bool",
          "name": "",
          "type": "bool"
        }
      ],
      "stateMutability": "nonpayable",
      "type": "function"
    },
    {
      "inputs": [
        {
          "internalType": "uint256",
          "name": "transferId",
          "type": "uint256"
        },
        {
          "internalType": "string",
          "name": "documentsURI",
          "type": "string"
        }
      ],
      "name": "approveTransfer",
      "outputs": [],
      "stateMutability": "nonpayable",
      "type": "function"
    },
    {
      "inputs": [],
      "name": "approvingAddress",
      "outputs": [
        {
          "internalType": "address",
          "name": "",
          "type": "address"
        }
      ],
      "stateMutability": "view",
      "type": "function"
    },
    {
      "inputs": [
        {
          "internalType": "address",
          "name": "account",
          "type": "address"
        }
      ],
      "name": "balanceOf",
      "outputs": [
        {
          "internalType": "uint256",
          "name": "",
          "type": "uint256"
        }
      ],
      "stateMutability": "view",
      "type": "function"
    },
    {
      "inputs": [
        {
          "internalType": "address",
          "name": "from",
          "type": "address"
        },
        {
          "internalType": "uint256",
          "name": "amount",
          "type": "uint256"
        }
      ],
      "name": "burnTokens",
      "outputs": [],
      "stateMutability": "nonpayable",
      "type": "function"
    },
    {
      "inputs": [],
      "name": "businessDetails",
      "outputs": [
        {
          "internalType": "string",
          "name": "name",
          "type": "string"
        },
        {
          "internalType": "string",
          "name": "location",
          "type": "string"
        },
        {
          "internalType": "uint256",
          "name": "yearStarted",
          "type": "uint256"
        },
        {
          "internalType": "string",
          "name": "legalDocumentsURI",
          "type": "string"
        }
      ],
      "stateMutability": "view",
      "type": "function"
    },
    {
      "inputs": [
        {
          "internalType": "uint256",
          "name": "transferId",
          "type": "uint256"
        }
      ],
      "name": "buyAndTransferTokens",
      "outputs": [],
      "stateMutability": "payable",
      "type": "function"
    },
    {
      "inputs": [
        {
          "internalType": "uint256",
          "name": "amount",
          "type": "uint256"
        },
        {
          "internalType": "address",
          "name": "receiving_address",
          "type": "address"
        }
      ],
      "name": "buyTokens",
      "outputs": [],
      "stateMutability": "payable",
      "type": "function"
    },
    {
      "inputs": [],
      "name": "decimals",
      "outputs": [
        {
          "internalType": "uint8",
          "name": "",
          "type": "uint8"
        }
      ],
      "stateMutability": "view",
      "type": "function"
    },
    {
      "inputs": [],
      "name": "getBusinessDetails",
      "outputs": [
        {
          "internalType": "string",
          "name": "",
          "type": "string"
        },
        {
          "internalType": "string",
          "name": "",
          "type": "string"
        },
        {
          "internalType": "uint256",
          "name": "",
          "type": "uint256"
        },
        {
          "internalType": "string",
          "name": "",
          "type": "string"
        }
      ],
      "stateMutability": "view",
      "type": "function"
    },
    {
      "inputs": [
        {
          "internalType": "uint256",
          "name": "transferId",
          "type": "uint256"
        }
      ],
      "name": "getTransferDetails",
      "outputs": [
        {
          "internalType": "address",
          "name": "",
          "type": "address"
        },
        {
          "internalType": "address",
          "name": "",
          "type": "address"
        },
        {
          "internalType": "uint256",
          "name": "",
          "type": "uint256"
        },
        {
          "internalType": "string",
          "name": "",
          "type": "string"
        },
        {
          "internalType": "bool",
          "name": "",
          "type": "bool"
        }
      ],
      "stateMutability": "view",
      "type": "function"
    },
    {
      "inputs": [
        {
          "internalType": "address",
          "name": "to",
          "type": "address"
        },
        {
          "internalType": "uint256",
          "name": "amount",
          "type": "uint256"
        }
      ],
      "name": "getTransferId",
      "outputs": [
        {
          "internalType": "uint256",
          "name": "",
          "type": "uint256"
        }
      ],
      "stateMutability": "view",
      "type": "function"
    },
    {
      "inputs": [
        {
          "internalType": "uint256",
          "name": "amount",
          "type": "uint256"
        }
      ],
      "name": "mintTokens",
      "outputs": [],
      "stateMutability": "nonpayable",
      "type": "function"
    },
    {
      "inputs": [],
      "name": "name",
      "outputs": [
        {
          "internalType": "string",
          "name": "",
          "type": "string"
        }
      ],
      "stateMutability": "view",
      "type": "function"
    },
    {
      "inputs": [],
      "name": "owner",
      "outputs": [
        {
          "internalType": "address",
          "name": "",
          "type": "address"
        }
      ],
      "stateMutability": "view",
      "type": "function"
    },
    {
      "inputs": [],
      "name": "renounceOwnership",
      "outputs": [],
      "stateMutability": "nonpayable",
      "type": "function"
    },
    {
      "inputs": [
        {
          "internalType": "address",
          "name": "from",
          "type": "address"
        },
        {
          "internalType": "address",
          "name": "to",
          "type": "address"
        },
        {
          "internalType": "uint256",
          "name": "amount",
          "type": "uint256"
        }
      ],
      "name": "requestTransfer",
      "outputs": [],
      "stateMutability": "nonpayable",
      "type": "function"
    },
    {
      "inputs": [
        {
          "internalType": "address",
          "name": "_approvingAddress",
          "type": "address"
        }
      ],
      "name": "setApprovingAddress",
      "outputs": [],
      "stateMutability": "nonpayable",
      "type": "function"
    },
    {
      "inputs": [
        {
          "internalType": "bool",
          "name": "issuable",
          "type": "bool"
        }
      ],
      "name": "setIssuable",
      "outputs": [],
      "stateMutability": "nonpayable",
      "type": "function"
    },
    {
      "inputs": [
        {
          "internalType": "uint256",
          "name": "price",
          "type": "uint256"
        }
      ],
      "name": "setTokenPrice",
      "outputs": [],
      "stateMutability": "nonpayable",
      "type": "function"
    },
    {
      "inputs": [
        {
          "internalType": "uint256",
          "name": "",
          "type": "uint256"
        }
      ],
      "name": "shareTransfers",
      "outputs": [
        {
          "internalType": "address",
          "name": "from",
          "type": "address"
        },
        {
          "internalType": "address",
          "name": "to",
          "type": "address"
        },
        {
          "internalType": "uint256",
          "name": "amount",
          "type": "uint256"
        },
        {
          "internalType": "string",
          "name": "documentsURI",
          "type": "string"
        },
        {
          "internalType": "bool",
          "name": "approved",
          "type": "bool"
        }
      ],
      "stateMutability": "view",
      "type": "function"
    },
    {
      "inputs": [],
      "name": "symbol",
      "outputs": [
        {
          "internalType": "string",
          "name": "",
          "type": "string"
        }
      ],
      "stateMutability": "view",
      "type": "function"
    },
    {
      "inputs": [],
      "name": "tokenDetails",
      "outputs": [
        {
          "internalType": "string",
          "name": "tokenName",
          "type": "string"
        },
        {
          "internalType": "string",
          "name": "tokenSymbol",
          "type": "string"
        },
        {
          "internalType": "string",
          "name": "documentsURI",
          "type": "string"
        },
        {
          "internalType": "uint256",
          "name": "tokenPrice",
          "type": "uint256"
        }
      ],
      "stateMutability": "view",
      "type": "function"
    },
    {
      "inputs": [],
      "name": "tokenPrice",
      "outputs": [
        {
          "internalType": "uint256",
          "name": "",
          "type": "uint256"
        }
      ],
      "stateMutability": "view",
      "type": "function"
    },
    {
      "inputs": [],
      "name": "totalAvailableToBuy",
      "outputs": [
        {
          "internalType": "uint256",
          "name": "",
          "type": "uint256"
        }
      ],
      "stateMutability": "view",
      "type": "function"
    },
    {
      "inputs": [],
      "name": "totalMintedSupply",
      "outputs": [
        {
          "internalType": "uint256",
          "name": "",
          "type": "uint256"
        }
      ],
      "stateMutability": "view",
      "type": "function"
    },
    {
      "inputs": [],
      "name": "totalSupply",
      "outputs": [
        {
          "internalType": "uint256",
          "name": "",
          "type": "uint256"
        }
      ],
      "stateMutability": "view",
      "type": "function"
    },
    {
      "inputs": [
        {
          "internalType": "address",
          "name": "recipient",
          "type": "address"
        },
        {
          "internalType": "uint256",
          "name": "amount",
          "type": "uint256"
        }
      ],
      "name": "transfer",
      "outputs": [
        {
          "internalType": "bool",
          "name": "",
          "type": "bool"
        }
      ],
      "stateMutability": "nonpayable",
      "type": "function"
    },
    {
      "inputs": [],
      "name": "transferCount",
      "outputs": [
        {
          "internalType": "uint256",
          "name": "",
          "type": "uint256"
        }
      ],
      "stateMutability": "view",
      "type": "function"
    },
    {
      "inputs": [
        {
          "internalType": "address",
          "name": "sender",
          "type": "address"
        },
        {
          "internalType": "address",
          "name": "recipient",
          "type": "address"
        },
        {
          "internalType": "uint256",
          "name": "amount",
          "type": "uint256"
        }
      ],
      "name": "transferFrom",
      "outputs": [
        {
          "internalType": "bool",
          "name": "",
          "type": "bool"
        }
      ],
      "stateMutability": "nonpayable",
      "type": "function"
    },
    {
      "inputs": [
        {
          "internalType": "address",
          "name": "newOwner",
          "type": "address"
        }
      ],
      "name": "transferOwnership",
      "outputs": [],
      "stateMutability": "nonpayable",
      "type": "function"
    },
    {
      "inputs": [
        {
          "internalType": "uint256",
          "name": "amount",
          "type": "uint256"
        }
      ],
      "name": "withdrawEther",
      "outputs": [],
      "stateMutability": "nonpayable",
      "type": "function"
    },
    {
      "stateMutability": "payable",
      "type": "receive"
    }
  ],
  "bytecode": "0x60806040523480156200001157600080fd5b5060405162004c0538038062004c058339818101604052810190620000379190620007af565b33858581600390816200004b919062000ad5565b5080600490816200005d919062000ad5565b505050600073ffffffffffffffffffffffffffffffffffffffff168173ffffffffffffffffffffffffffffffffffffffff1603620000d55760006040517f1e4fbdf7000000000000000000000000000000000000000000000000000000008152600401620000cc919062000c01565b60405180910390fd5b620000e6816200025e60201b60201c565b5060648211156200012e576040517f08c379a0000000000000000000000000000000000000000000000000000000008152600401620001259062000ca5565b60405180910390fd5b6001600f60006101000a81548160ff021916908315150217905550604051806080016040528086815260200185815260200184815260200182815250600a600082015181600001908162000183919062000ad5565b5060208201518160010190816200019b919062000ad5565b506040820151816002019081620001b3919062000ad5565b506060820151816003015590505060006064683635c9adc5dea0000084620001dc919062000cf6565b620001e8919062000d70565b9050620001fc30826200032460201b60201c565b81600e81905550806010819055508060118190555030601460006101000a81548173ffffffffffffffffffffffffffffffffffffffff021916908373ffffffffffffffffffffffffffffffffffffffff16021790555050505050505062000e4e565b6000600560009054906101000a900473ffffffffffffffffffffffffffffffffffffffff16905081600560006101000a81548173ffffffffffffffffffffffffffffffffffffffff021916908373ffffffffffffffffffffffffffffffffffffffff1602179055508173ffffffffffffffffffffffffffffffffffffffff168173ffffffffffffffffffffffffffffffffffffffff167f8be0079c531659141344cd1fd0a4f28419497f9722a3daafe3b4186f6b6457e060405160405180910390a35050565b600073ffffffffffffffffffffffffffffffffffffffff168273ffffffffffffffffffffffffffffffffffffffff1603620003995760006040517fec442f0500000000000000000000000000000000000000000000000000000000815260040162000390919062000c01565b60405180910390fd5b620003ad60008383620003b160201b60201c565b5050565b600073ffffffffffffffffffffffffffffffffffffffff168373ffffffffffffffffffffffffffffffffffffffff160362000407578060026000828254620003fa919062000da8565b92505081905550620004dd565b60008060008573ffffffffffffffffffffffffffffffffffffffff1673ffffffffffffffffffffffffffffffffffffffff1681526020019081526020016000205490508181101562000496578381836040517fe450d38c0000000000000000000000000000000000000000000000000000000081526004016200048d9392919062000df4565b60405180910390fd5b8181036000808673ffffffffffffffffffffffffffffffffffffffff1673ffffffffffffffffffffffffffffffffffffffff16815260200190815260200160002081905550505b600073ffffffffffffffffffffffffffffffffffffffff168273ffffffffffffffffffffffffffffffffffffffff160362000528578060026000828254039250508190555062000575565b806000808473ffffffffffffffffffffffffffffffffffffffff1673ffffffffffffffffffffffffffffffffffffffff168152602001908152602001600020600082825401925050819055505b8173ffffffffffffffffffffffffffffffffffffffff168373ffffffffffffffffffffffffffffffffffffffff167fddf252ad1be2c89b69c2b068fc378daa952ba7f163c4a11628f55a4df523b3ef83604051620005d4919062000e31565b60405180910390a3505050565b6000604051905090565b600080fd5b600080fd5b600080fd5b600080fd5b6000601f19601f8301169050919050565b7f4e487b7100000000000000000000000000000000000000000000000000000000600052604160045260246000fd5b6200064a82620005ff565b810181811067ffffffffffffffff821117156200066c576200066b62000610565b5b80604052505050565b600062000681620005e1565b90506200068f82826200063f565b919050565b600067ffffffffffffffff821115620006b257620006b162000610565b5b620006bd82620005ff565b9050602081019050919050565b60005b83811015620006ea578082015181840152602081019050620006cd565b60008484015250505050565b60006200070d620007078462000694565b62000675565b9050828152602081018484840111156200072c576200072b620005fa565b5b62000739848285620006ca565b509392505050565b600082601f830112620007595762000758620005f5565b5b81516200076b848260208601620006f6565b91505092915050565b6000819050919050565b620007898162000774565b81146200079557600080fd5b50565b600081519050620007a9816200077e565b92915050565b600080600080600060a08688031215620007ce57620007cd620005eb565b5b600086015167ffffffffffffffff811115620007ef57620007ee620005f0565b5b620007fd8882890162000741565b955050602086015167ffffffffffffffff811115620008215762000820620005f0565b5b6200082f8882890162000741565b945050604086015167ffffffffffffffff811115620008535762000852620005f0565b5b620008618882890162000741565b9350506060620008748882890162000798565b9250506080620008878882890162000798565b9150509295509295909350565b600081519050919050565b7f4e487b7100000000000000000000000000000000000000000000000000000000600052602260045260246000fd5b60006002820490506001821680620008e757607f821691505b602082108103620008fd57620008fc6200089f565b5b50919050565b60008190508160005260206000209050919050565b60006020601f8301049050919050565b600082821b905092915050565b600060088302620009677fffffffffffffffffffffffffffffffffffffffffffffffffffffffffffffffff8262000928565b62000973868362000928565b95508019841693508086168417925050509392505050565b6000819050919050565b6000620009b6620009b0620009aa8462000774565b6200098b565b62000774565b9050919050565b6000819050919050565b620009d28362000995565b620009ea620009e182620009bd565b84845462000935565b825550505050565b600090565b62000a01620009f2565b62000a0e818484620009c7565b505050565b5b8181101562000a365762000a2a600082620009f7565b60018101905062000a14565b5050565b601f82111562000a855762000a4f8162000903565b62000a5a8462000918565b8101602085101562000a6a578190505b62000a8262000a798562000918565b83018262000a13565b50505b505050565b600082821c905092915050565b600062000aaa6000198460080262000a8a565b1980831691505092915050565b600062000ac5838362000a97565b9150826002028217905092915050565b62000ae08262000894565b67ffffffffffffffff81111562000afc5762000afb62000610565b5b62000b088254620008ce565b62000b1582828562000a3a565b600060209050601f83116001811462000b4d576000841562000b38578287015190505b62000b44858262000ab7565b86555062000bb4565b601f19841662000b5d8662000903565b60005b8281101562000b875784890151825560018201915060208501945060208101905062000b60565b8683101562000ba7578489015162000ba3601f89168262000a97565b8355505b6001600288020188555050505b505050505050565b600073ffffffffffffffffffffffffffffffffffffffff82169050919050565b600062000be98262000bbc565b9050919050565b62000bfb8162000bdc565b82525050565b600060208201905062000c18600083018462000bf0565b92915050565b600082825260208201905092915050565b7f496e697469616c20737570706c792070657263656e74616765206d757374206260008201527f65206265747765656e203020616e642031303000000000000000000000000000602082015250565b600062000c8d60338362000c1e565b915062000c9a8262000c2f565b604082019050919050565b6000602082019050818103600083015262000cc08162000c7e565b9050919050565b7f4e487b7100000000000000000000000000000000000000000000000000000000600052601160045260246000fd5b600062000d038262000774565b915062000d108362000774565b925082820262000d208162000774565b9150828204841483151762000d3a5762000d3962000cc7565b5b5092915050565b7f4e487b7100000000000000000000000000000000000000000000000000000000600052601260045260246000fd5b600062000d7d8262000774565b915062000d8a8362000774565b92508262000d9d5762000d9c62000d41565b5b828204905092915050565b600062000db58262000774565b915062000dc28362000774565b925082820190508082111562000ddd5762000ddc62000cc7565b5b92915050565b62000dee8162000774565b82525050565b600060608201905062000e0b600083018662000bf0565b62000e1a602083018562000de3565b62000e29604083018462000de3565b949350505050565b600060208201905062000e48600083018462000de3565b92915050565b613da78062000e5e6000396000f3fe6080604052600436106101fd5760003560e01c806373fb33f01161010d578063a9059cbb116100a0578063dd62ed3e1161006f578063dd62ed3e14610732578063ddcb432b1461076f578063e3d33fc91461078b578063e9abb285146107b6578063f2fde38b146107f357610204565b8063a9059cbb14610680578063c625e9b1146106bd578063d6abe110146106d9578063d9387d8d1461070757610204565b806397304ced116100dc57806397304ced146105da57806399867be6146106035780639ab309ca1461062e578063a4293ead1461065757610204565b806373fb33f0146105185780637ff9b596146105595780638da5cb5b1461058457806395d89b41146105af57610204565b8063313ce56711610190578063601e26031161015f578063601e26031461042f57806365536e1a1461045a5780636a61e5fc1461049b57806370a08231146104c4578063715018a61461050157610204565b8063313ce5671461038757806333039d3d146103b25780633bed33ce146103dd5780635ccef3e71461040657610204565b806318160ddd116101cc57806318160ddd146102c357806323b872dd146102ee578063264055c61461032b578063289c51a01461035957610204565b806306fdde0314610209578063089932a614610234578063095ea7b31461025d5780630d1118ce1461029a57610204565b3661020457005b600080fd5b34801561021557600080fd5b5061021e61081c565b60405161022b9190612b13565b60405180910390f35b34801561024057600080fd5b5061025b60048036038101906102569190612ba7565b6108ae565b005b34801561026957600080fd5b50610284600480360381019061027f9190612c0a565b6108fa565b6040516102919190612c65565b60405180910390f35b3480156102a657600080fd5b506102c160048036038101906102bc9190612c0a565b61091d565b005b3480156102cf57600080fd5b506102d8610933565b6040516102e59190612c8f565b60405180910390f35b3480156102fa57600080fd5b5061031560048036038101906103109190612caa565b61093d565b6040516103229190612c65565b60405180910390f35b34801561033757600080fd5b50610340610aa5565b6040516103509493929190612cfd565b60405180910390f35b34801561036557600080fd5b5061036e610c5b565b60405161037e9493929190612cfd565b60405180910390f35b34801561039357600080fd5b5061039c610e29565b6040516103a99190612d73565b60405180910390f35b3480156103be57600080fd5b506103c7610e32565b6040516103d49190612c8f565b60405180910390f35b3480156103e957600080fd5b5061040460048036038101906103ff9190612d8e565b610e3f565b005b34801561041257600080fd5b5061042d60048036038101906104289190612ef0565b610e98565b005b34801561043b57600080fd5b50610444611009565b6040516104519190612c8f565b60405180910390f35b34801561046657600080fd5b50610481600480360381019061047c9190612d8e565b61100f565b604051610492959493929190612f5b565b60405180910390f35b3480156104a757600080fd5b506104c260048036038101906104bd9190612d8e565b6111c9565b005b3480156104d057600080fd5b506104eb60048036038101906104e69190612ba7565b6111de565b6040516104f89190612c8f565b60405180910390f35b34801561050d57600080fd5b50610516611226565b005b34801561052457600080fd5b5061053f600480360381019061053a9190612d8e565b61123a565b604051610550959493929190612f5b565b60405180910390f35b34801561056557600080fd5b5061056e611345565b60405161057b9190612c8f565b60405180910390f35b34801561059057600080fd5b5061059961134b565b6040516105a69190612fb5565b60405180910390f35b3480156105bb57600080fd5b506105c4611375565b6040516105d19190612b13565b60405180910390f35b3480156105e657600080fd5b5061060160048036038101906105fc9190612d8e565b611407565b005b34801561060f57600080fd5b5061061861151c565b6040516106259190612fb5565b60405180910390f35b34801561063a57600080fd5b5061065560048036038101906106509190612ffc565b611542565b005b34801561066357600080fd5b5061067e60048036038101906106799190612caa565b611567565b005b34801561068c57600080fd5b506106a760048036038101906106a29190612c0a565b6116cf565b6040516106b49190612c65565b60405180910390f35b6106d760048036038101906106d29190613029565b611835565b005b3480156106e557600080fd5b506106ee611b10565b6040516106fe9493929190613069565b60405180910390f35b34801561071357600080fd5b5061071c611cc6565b6040516107299190612c8f565b60405180910390f35b34801561073e57600080fd5b50610759600480360381019061075491906130c3565b611ccc565b6040516107669190612c8f565b60405180910390f35b61078960048036038101906107849190612d8e565b611d53565b005b34801561079757600080fd5b506107a0612095565b6040516107ad9190612c8f565b60405180910390f35b3480156107c257600080fd5b506107dd60048036038101906107d89190612c0a565b61209b565b6040516107ea9190612c8f565b60405180910390f35b3480156107ff57600080fd5b5061081a60048036038101906108159190612ba7565b61215f565b005b60606003805461082b90613132565b80601f016020809104026020016040519081016040528092919081815260200182805461085790613132565b80156108a45780601f10610879576101008083540402835291602001916108a4565b820191906000526020600020905b81548152906001019060200180831161088757829003601f168201915b5050505050905090565b6108b66121e5565b80601460006101000a81548173ffffffffffffffffffffffffffffffffffffffff021916908373ffffffffffffffffffffffffffffffffffffffff16021790555050565b60008061090561226c565b9050610912818585612274565b600191505092915050565b6109256121e5565b61092f8282612286565b5050565b6000600254905090565b60008061094a848461209b565b90506000810361098f576040517f08c379a0000000000000000000000000000000000000000000000000000000008152600401610986906131af565b60405180910390fd5b600060126000838152602001908152602001600020905060008160030180546109b790613132565b9050116109f9576040517f08c379a00000000000000000000000000000000000000000000000000000000081526004016109f09061321b565b60405180910390fd5b610a8f82826003018054610a0c90613132565b80601f0160208091040260200160405190810160405280929190818152602001828054610a3890613132565b8015610a855780601f10610a5a57610100808354040283529160200191610a85565b820191906000526020600020905b815481529060010190602001808311610a6857829003601f168201915b5050505050610e98565b610a9a868686612308565b925050509392505050565b6006806000018054610ab690613132565b80601f0160208091040260200160405190810160405280929190818152602001828054610ae290613132565b8015610b2f5780601f10610b0457610100808354040283529160200191610b2f565b820191906000526020600020905b815481529060010190602001808311610b1257829003601f168201915b505050505090806001018054610b4490613132565b80601f0160208091040260200160405190810160405280929190818152602001828054610b7090613132565b8015610bbd5780601f10610b9257610100808354040283529160200191610bbd565b820191906000526020600020905b815481529060010190602001808311610ba057829003601f168201915b505050505090806002015490806003018054610bd890613132565b80601f0160208091040260200160405190810160405280929190818152602001828054610c0490613132565b8015610c515780601f10610c2657610100808354040283529160200191610c51565b820191906000526020600020905b815481529060010190602001808311610c3457829003601f168201915b5050505050905084565b60608060006060600660000160066001016006600201546006600301838054610c8390613132565b80601f0160208091040260200160405190810160405280929190818152602001828054610caf90613132565b8015610cfc5780601f10610cd157610100808354040283529160200191610cfc565b820191906000526020600020905b815481529060010190602001808311610cdf57829003601f168201915b50505050509350828054610d0f90613132565b80601f0160208091040260200160405190810160405280929190818152602001828054610d3b90613132565b8015610d885780601f10610d5d57610100808354040283529160200191610d88565b820191906000526020600020905b815481529060010190602001808311610d6b57829003601f168201915b50505050509250808054610d9b90613132565b80601f0160208091040260200160405190810160405280929190818152602001828054610dc790613132565b8015610e145780601f10610de957610100808354040283529160200191610e14565b820191906000526020600020905b815481529060010190602001808311610df757829003601f168201915b50505050509050935093509350935090919293565b60006012905090565b683635c9adc5dea0000081565b610e476121e5565b610e4f61134b565b73ffffffffffffffffffffffffffffffffffffffff166108fc829081150290604051600060405180830381858888f19350505050158015610e94573d6000803e3d6000fd5b5050565b6000601260008481526020019081526020016000209050600073ffffffffffffffffffffffffffffffffffffffff168160000160009054906101000a900473ffffffffffffffffffffffffffffffffffffffff1673ffffffffffffffffffffffffffffffffffffffff1603610f42576040517f08c379a0000000000000000000000000000000000000000000000000000000008152600401610f3990613287565b60405180910390fd5b600073ffffffffffffffffffffffffffffffffffffffff168160010160009054906101000a900473ffffffffffffffffffffffffffffffffffffffff1673ffffffffffffffffffffffffffffffffffffffff1603610fd5576040517f08c379a0000000000000000000000000000000000000000000000000000000008152600401610fcc90613287565b60405180910390fd5b81816003019081610fe69190613453565b5060018160040160006101000a81548160ff021916908315150217905550505050565b60105481565b60008060006060600080601260008881526020019081526020016000206040518060a00160405290816000820160009054906101000a900473ffffffffffffffffffffffffffffffffffffffff1673ffffffffffffffffffffffffffffffffffffffff1673ffffffffffffffffffffffffffffffffffffffff1681526020016001820160009054906101000a900473ffffffffffffffffffffffffffffffffffffffff1673ffffffffffffffffffffffffffffffffffffffff1673ffffffffffffffffffffffffffffffffffffffff168152602001600282015481526020016003820180546110fd90613132565b80601f016020809104026020016040519081016040528092919081815260200182805461112990613132565b80156111765780601f1061114b57610100808354040283529160200191611176565b820191906000526020600020905b81548152906001019060200180831161115957829003601f168201915b505050505081526020016004820160009054906101000a900460ff161515151581525050905080600001518160200151826040015183606001518460800151955095509550955095505091939590929450565b6111d16121e5565b80600a6003018190555050565b60008060008373ffffffffffffffffffffffffffffffffffffffff1673ffffffffffffffffffffffffffffffffffffffff168152602001908152602001600020549050919050565b61122e6121e5565b6112386000612337565b565b60126020528060005260406000206000915090508060000160009054906101000a900473ffffffffffffffffffffffffffffffffffffffff16908060010160009054906101000a900473ffffffffffffffffffffffffffffffffffffffff16908060020154908060030180546112af90613132565b80601f01602080910402602001604051908101604052809291908181526020018280546112db90613132565b80156113285780601f106112fd57610100808354040283529160200191611328565b820191906000526020600020905b81548152906001019060200180831161130b57829003601f168201915b5050505050908060040160009054906101000a900460ff16905085565b600e5481565b6000600560009054906101000a900473ffffffffffffffffffffffffffffffffffffffff16905090565b60606004805461138490613132565b80601f01602080910402602001604051908101604052809291908181526020018280546113b090613132565b80156113fd5780601f106113d2576101008083540402835291602001916113fd565b820191906000526020600020905b8154815290600101906020018083116113e057829003601f168201915b5050505050905090565b61140f6121e5565b600f60009054906101000a900460ff1661145e576040517f08c379a000000000000000000000000000000000000000000000000000000000815260040161145590613571565b60405180910390fd5b60006064683635c9adc5dea000008361147791906135c0565b6114819190613631565b9050683635c9adc5dea000008160105461149b9190613662565b11156114dc576040517f08c379a00000000000000000000000000000000000000000000000000000000081526004016114d3906136e2565b60405180910390fd5b6114e630826123fd565b80601060008282546114f89190613662565b9250508190555080601160008282546115119190613662565b925050819055505050565b601460009054906101000a900473ffffffffffffffffffffffffffffffffffffffff1681565b61154a6121e5565b80600f60006101000a81548160ff02191690831515021790555050565b6013600081548092919061157a90613702565b91905055506040518060a001604052808473ffffffffffffffffffffffffffffffffffffffff1681526020018373ffffffffffffffffffffffffffffffffffffffff1681526020018281526020016040518060200160405280600081525081526020016000151581525060126000601354815260200190815260200160002060008201518160000160006101000a81548173ffffffffffffffffffffffffffffffffffffffff021916908373ffffffffffffffffffffffffffffffffffffffff16021790555060208201518160010160006101000a81548173ffffffffffffffffffffffffffffffffffffffff021916908373ffffffffffffffffffffffffffffffffffffffff1602179055506040820151816002015560608201518160030190816116a69190613453565b5060808201518160040160006101000a81548160ff021916908315150217905550905050505050565b6000806116dc848461209b565b905060008103611721576040517f08c379a0000000000000000000000000000000000000000000000000000000008152600401611718906131af565b60405180910390fd5b6000601260008381526020019081526020016000209050600081600301805461174990613132565b90501161178b576040517f08c379a00000000000000000000000000000000000000000000000000000000081526004016117829061321b565b60405180910390fd5b6118218282600301805461179e90613132565b80601f01602080910402602001604051908101604052809291908181526020018280546117ca90613132565b80156118175780601f106117ec57610100808354040283529160200191611817565b820191906000526020600020905b8154815290600101906020018083116117fa57829003601f168201915b5050505050610e98565b61182b858561247f565b9250505092915050565b600f60009054906101000a900460ff16611884576040517f08c379a000000000000000000000000000000000000000000000000000000000815260040161187b90613571565b60405180910390fd5b7f3c6915f9ff5a7fe2a1290337af4bee36802a39e8cfeec0e65ec8ad904dee37396040516118b190613796565b60405180910390a16000600e54836118c991906135c0565b90508034101561190e576040517f08c379a000000000000000000000000000000000000000000000000000000000815260040161190590613802565b60405180910390fd5b826011541015611953576040517f08c379a000000000000000000000000000000000000000000000000000000000815260040161194a9061386e565b60405180910390fd5b7f3c6915f9ff5a7fe2a1290337af4bee36802a39e8cfeec0e65ec8ad904dee373960405161198090613900565b60405180910390a18173ffffffffffffffffffffffffffffffffffffffff166108fc829081150290604051600060405180830381858888f193505050501580156119ce573d6000803e3d6000fd5b507f3c6915f9ff5a7fe2a1290337af4bee36802a39e8cfeec0e65ec8ad904dee37396040516119fc90613992565b60405180910390a180341115611a5f573373ffffffffffffffffffffffffffffffffffffffff166108fc8234611a3291906139b2565b9081150290604051600060405180830381858888f19350505050158015611a5d573d6000803e3d6000fd5b505b7f3c6915f9ff5a7fe2a1290337af4bee36802a39e8cfeec0e65ec8ad904dee3739604051611a8c90613a32565b60405180910390a18260116000828254611aa691906139b2565b92505081905550611ad63033611aba610e29565b600a611ac69190613b85565b86611ad191906135c0565b6124a2565b7f3c6915f9ff5a7fe2a1290337af4bee36802a39e8cfeec0e65ec8ad904dee3739604051611b0390613c1c565b60405180910390a1505050565b600a806000018054611b2190613132565b80601f0160208091040260200160405190810160405280929190818152602001828054611b4d90613132565b8015611b9a5780601f10611b6f57610100808354040283529160200191611b9a565b820191906000526020600020905b815481529060010190602001808311611b7d57829003601f168201915b505050505090806001018054611baf90613132565b80601f0160208091040260200160405190810160405280929190818152602001828054611bdb90613132565b8015611c285780601f10611bfd57610100808354040283529160200191611c28565b820191906000526020600020905b815481529060010190602001808311611c0b57829003601f168201915b505050505090806002018054611c3d90613132565b80601f0160208091040260200160405190810160405280929190818152602001828054611c6990613132565b8015611cb65780601f10611c8b57610100808354040283529160200191611cb6565b820191906000526020600020905b815481529060010190602001808311611c9957829003601f168201915b5050505050908060030154905084565b60115481565b6000600160008473ffffffffffffffffffffffffffffffffffffffff1673ffffffffffffffffffffffffffffffffffffffff16815260200190815260200160002060008373ffffffffffffffffffffffffffffffffffffffff1673ffffffffffffffffffffffffffffffffffffffff16815260200190815260200160002054905092915050565b806012600082815260200190815260200160002060040160009054906101000a900460ff16611db7576040517f08c379a0000000000000000000000000000000000000000000000000000000008152600401611dae90613c88565b60405180910390fd5b60006012600084815260200190815260200160002090503373ffffffffffffffffffffffffffffffffffffffff168160010160009054906101000a900473ffffffffffffffffffffffffffffffffffffffff1673ffffffffffffffffffffffffffffffffffffffff1614611e60576040517f08c379a0000000000000000000000000000000000000000000000000000000008152600401611e5790613d1a565b60405180910390fd5b6000816003018054611e7190613132565b905011611eb3576040517f08c379a0000000000000000000000000000000000000000000000000000000008152600401611eaa9061321b565b60405180910390fd5b6000670de0b6b3a76400008260020154611ecd9190613631565b90506000600e5482611edf91906135c0565b9050611f388360000160009054906101000a900473ffffffffffffffffffffffffffffffffffffffff168460010160009054906101000a900473ffffffffffffffffffffffffffffffffffffffff1685600201546124a2565b8260000160009054906101000a900473ffffffffffffffffffffffffffffffffffffffff1673ffffffffffffffffffffffffffffffffffffffff166108fc829081150290604051600060405180830381858888f19350505050158015611fa2573d6000803e3d6000fd5b5080341115611ffe573373ffffffffffffffffffffffffffffffffffffffff166108fc8234611fd191906139b2565b9081150290604051600060405180830381858888f19350505050158015611ffc573d6000803e3d6000fd5b505b60126000868152602001908152602001600020600080820160006101000a81549073ffffffffffffffffffffffffffffffffffffffff02191690556001820160006101000a81549073ffffffffffffffffffffffffffffffffffffffff021916905560028201600090556003820160006120789190612a26565b6004820160006101000a81549060ff021916905550505050505050565b60135481565b600080600190505b6013548111612153578373ffffffffffffffffffffffffffffffffffffffff166012600083815260200190815260200160002060010160009054906101000a900473ffffffffffffffffffffffffffffffffffffffff1673ffffffffffffffffffffffffffffffffffffffff161480156121325750826012600083815260200190815260200160002060020154145b156121405780915050612159565b808061214b90613702565b9150506120a3565b50600090505b92915050565b6121676121e5565b600073ffffffffffffffffffffffffffffffffffffffff168173ffffffffffffffffffffffffffffffffffffffff16036121d95760006040517f1e4fbdf70000000000000000000000000000000000000000000000000000000081526004016121d09190612fb5565b60405180910390fd5b6121e281612337565b50565b6121ed61226c565b73ffffffffffffffffffffffffffffffffffffffff1661220b61134b565b73ffffffffffffffffffffffffffffffffffffffff161461226a5761222e61226c565b6040517f118cdaa70000000000000000000000000000000000000000000000000000000081526004016122619190612fb5565b60405180910390fd5b565b600033905090565b6122818383836001612596565b505050565b600073ffffffffffffffffffffffffffffffffffffffff168273ffffffffffffffffffffffffffffffffffffffff16036122f85760006040517f96c6fd1e0000000000000000000000000000000000000000000000000000000081526004016122ef9190612fb5565b60405180910390fd5b6123048260008361276d565b5050565b60008061231361226c565b9050612320858285612992565b61232b8585856124a2565b60019150509392505050565b6000600560009054906101000a900473ffffffffffffffffffffffffffffffffffffffff16905081600560006101000a81548173ffffffffffffffffffffffffffffffffffffffff021916908373ffffffffffffffffffffffffffffffffffffffff1602179055508173ffffffffffffffffffffffffffffffffffffffff168173ffffffffffffffffffffffffffffffffffffffff167f8be0079c531659141344cd1fd0a4f28419497f9722a3daafe3b4186f6b6457e060405160405180910390a35050565b600073ffffffffffffffffffffffffffffffffffffffff168273ffffffffffffffffffffffffffffffffffffffff160361246f5760006040517fec442f050000000000000000000000000000000000000000000000000000000081526004016124669190612fb5565b60405180910390fd5b61247b6000838361276d565b5050565b60008061248a61226c565b90506124978185856124a2565b600191505092915050565b600073ffffffffffffffffffffffffffffffffffffffff168373ffffffffffffffffffffffffffffffffffffffff16036125145760006040517f96c6fd1e00000000000000000000000000000000000000000000000000000000815260040161250b9190612fb5565b60405180910390fd5b600073ffffffffffffffffffffffffffffffffffffffff168273ffffffffffffffffffffffffffffffffffffffff16036125865760006040517fec442f0500000000000000000000000000000000000000000000000000000000815260040161257d9190612fb5565b60405180910390fd5b61259183838361276d565b505050565b600073ffffffffffffffffffffffffffffffffffffffff168473ffffffffffffffffffffffffffffffffffffffff16036126085760006040517fe602df050000000000000000000000000000000000000000000000000000000081526004016125ff9190612fb5565b60405180910390fd5b600073ffffffffffffffffffffffffffffffffffffffff168373ffffffffffffffffffffffffffffffffffffffff160361267a5760006040517f94280d620000000000000000000000000000000000000000000000000000000081526004016126719190612fb5565b60405180910390fd5b81600160008673ffffffffffffffffffffffffffffffffffffffff1673ffffffffffffffffffffffffffffffffffffffff16815260200190815260200160002060008573ffffffffffffffffffffffffffffffffffffffff1673ffffffffffffffffffffffffffffffffffffffff168152602001908152602001600020819055508015612767578273ffffffffffffffffffffffffffffffffffffffff168473ffffffffffffffffffffffffffffffffffffffff167f8c5be1e5ebec7d5bd14f71427d1e84f3dd0314c0f7b2291e5b200ac8c7c3b9258460405161275e9190612c8f565b60405180910390a35b50505050565b600073ffffffffffffffffffffffffffffffffffffffff168373ffffffffffffffffffffffffffffffffffffffff16036127bf5780600260008282546127b39190613662565b92505081905550612892565b60008060008573ffffffffffffffffffffffffffffffffffffffff1673ffffffffffffffffffffffffffffffffffffffff1681526020019081526020016000205490508181101561284b578381836040517fe450d38c00000000000000000000000000000000000000000000000000000000815260040161284293929190613d3a565b60405180910390fd5b8181036000808673ffffffffffffffffffffffffffffffffffffffff1673ffffffffffffffffffffffffffffffffffffffff16815260200190815260200160002081905550505b600073ffffffffffffffffffffffffffffffffffffffff168273ffffffffffffffffffffffffffffffffffffffff16036128db5780600260008282540392505081905550612928565b806000808473ffffffffffffffffffffffffffffffffffffffff1673ffffffffffffffffffffffffffffffffffffffff168152602001908152602001600020600082825401925050819055505b8173ffffffffffffffffffffffffffffffffffffffff168373ffffffffffffffffffffffffffffffffffffffff167fddf252ad1be2c89b69c2b068fc378daa952ba7f163c4a11628f55a4df523b3ef836040516129859190612c8f565b60405180910390a3505050565b600061299e8484611ccc565b90507fffffffffffffffffffffffffffffffffffffffffffffffffffffffffffffffff8114612a205781811015612a10578281836040517ffb8f41b2000000000000000000000000000000000000000000000000000000008152600401612a0793929190613d3a565b60405180910390fd5b612a1f84848484036000612596565b5b50505050565b508054612a3290613132565b6000825580601f10612a445750612a63565b601f016020900490600052602060002090810190612a629190612a66565b5b50565b5b80821115612a7f576000816000905550600101612a67565b5090565b600081519050919050565b600082825260208201905092915050565b60005b83811015612abd578082015181840152602081019050612aa2565b60008484015250505050565b6000601f19601f8301169050919050565b6000612ae582612a83565b612aef8185612a8e565b9350612aff818560208601612a9f565b612b0881612ac9565b840191505092915050565b60006020820190508181036000830152612b2d8184612ada565b905092915050565b6000604051905090565b600080fd5b600080fd5b600073ffffffffffffffffffffffffffffffffffffffff82169050919050565b6000612b7482612b49565b9050919050565b612b8481612b69565b8114612b8f57600080fd5b50565b600081359050612ba181612b7b565b92915050565b600060208284031215612bbd57612bbc612b3f565b5b6000612bcb84828501612b92565b91505092915050565b6000819050919050565b612be781612bd4565b8114612bf257600080fd5b50565b600081359050612c0481612bde565b92915050565b60008060408385031215612c2157612c20612b3f565b5b6000612c2f85828601612b92565b9250506020612c4085828601612bf5565b9150509250929050565b60008115159050919050565b612c5f81612c4a565b82525050565b6000602082019050612c7a6000830184612c56565b92915050565b612c8981612bd4565b82525050565b6000602082019050612ca46000830184612c80565b92915050565b600080600060608486031215612cc357612cc2612b3f565b5b6000612cd186828701612b92565b9350506020612ce286828701612b92565b9250506040612cf386828701612bf5565b9150509250925092565b60006080820190508181036000830152612d178187612ada565b90508181036020830152612d2b8186612ada565b9050612d3a6040830185612c80565b8181036060830152612d4c8184612ada565b905095945050505050565b600060ff82169050919050565b612d6d81612d57565b82525050565b6000602082019050612d886000830184612d64565b92915050565b600060208284031215612da457612da3612b3f565b5b6000612db284828501612bf5565b91505092915050565b600080fd5b600080fd5b7f4e487b7100000000000000000000000000000000000000000000000000000000600052604160045260246000fd5b612dfd82612ac9565b810181811067ffffffffffffffff82111715612e1c57612e1b612dc5565b5b80604052505050565b6000612e2f612b35565b9050612e3b8282612df4565b919050565b600067ffffffffffffffff821115612e5b57612e5a612dc5565b5b612e6482612ac9565b9050602081019050919050565b82818337600083830152505050565b6000612e93612e8e84612e40565b612e25565b905082815260208101848484011115612eaf57612eae612dc0565b5b612eba848285612e71565b509392505050565b600082601f830112612ed757612ed6612dbb565b5b8135612ee7848260208601612e80565b91505092915050565b60008060408385031215612f0757612f06612b3f565b5b6000612f1585828601612bf5565b925050602083013567ffffffffffffffff811115612f3657612f35612b44565b5b612f4285828601612ec2565b9150509250929050565b612f5581612b69565b82525050565b600060a082019050612f706000830188612f4c565b612f7d6020830187612f4c565b612f8a6040830186612c80565b8181036060830152612f9c8185612ada565b9050612fab6080830184612c56565b9695505050505050565b6000602082019050612fca6000830184612f4c565b92915050565b612fd981612c4a565b8114612fe457600080fd5b50565b600081359050612ff681612fd0565b92915050565b60006020828403121561301257613011612b3f565b5b600061302084828501612fe7565b91505092915050565b600080604083850312156130405761303f612b3f565b5b600061304e85828601612bf5565b925050602061305f85828601612b92565b9150509250929050565b600060808201905081810360008301526130838187612ada565b905081810360208301526130978186612ada565b905081810360408301526130ab8185612ada565b90506130ba6060830184612c80565b95945050505050565b600080604083850312156130da576130d9612b3f565b5b60006130e885828601612b92565b92505060206130f985828601612b92565b9150509250929050565b7f4e487b7100000000000000000000000000000000000000000000000000000000600052602260045260246000fd5b6000600282049050600182168061314a57607f821691505b60208210810361315d5761315c613103565b5b50919050565b7f5472616e73666572206e6f742072657175657374656400000000000000000000600082015250565b6000613199601683612a8e565b91506131a482613163565b602082019050919050565b600060208201905081810360008301526131c88161318c565b9050919050565b7f446f63756d656e7473206e6f742070726573656e740000000000000000000000600082015250565b6000613205601583612a8e565b9150613210826131cf565b602082019050919050565b60006020820190508181036000830152613234816131f8565b9050919050565b7f496e76616c6964207472616e7366657220726571756573740000000000000000600082015250565b6000613271601883612a8e565b915061327c8261323b565b602082019050919050565b600060208201905081810360008301526132a081613264565b9050919050565b60008190508160005260206000209050919050565b60006020601f8301049050919050565b600082821b905092915050565b6000600883026133097fffffffffffffffffffffffffffffffffffffffffffffffffffffffffffffffff826132cc565b61331386836132cc565b95508019841693508086168417925050509392505050565b6000819050919050565b600061335061334b61334684612bd4565b61332b565b612bd4565b9050919050565b6000819050919050565b61336a83613335565b61337e61337682613357565b8484546132d9565b825550505050565b600090565b613393613386565b61339e818484613361565b505050565b5b818110156133c2576133b760008261338b565b6001810190506133a4565b5050565b601f821115613407576133d8816132a7565b6133e1846132bc565b810160208510156133f0578190505b6134046133fc856132bc565b8301826133a3565b50505b505050565b600082821c905092915050565b600061342a6000198460080261340c565b1980831691505092915050565b60006134438383613419565b9150826002028217905092915050565b61345c82612a83565b67ffffffffffffffff81111561347557613474612dc5565b5b61347f8254613132565b61348a8282856133c6565b600060209050601f8311600181146134bd57600084156134ab578287015190505b6134b58582613437565b86555061351d565b601f1984166134cb866132a7565b60005b828110156134f3578489015182556001820191506020850194506020810190506134ce565b86831015613510578489015161350c601f891682613419565b8355505b6001600288020188555050505b505050505050565b7f546f6b656e2069737375616e63652069732064697361626c6564000000000000600082015250565b600061355b601a83612a8e565b915061356682613525565b602082019050919050565b6000602082019050818103600083015261358a8161354e565b9050919050565b7f4e487b7100000000000000000000000000000000000000000000000000000000600052601160045260246000fd5b60006135cb82612bd4565b91506135d683612bd4565b92508282026135e481612bd4565b915082820484148315176135fb576135fa613591565b5b5092915050565b7f4e487b7100000000000000000000000000000000000000000000000000000000600052601260045260246000fd5b600061363c82612bd4565b915061364783612bd4565b92508261365757613656613602565b5b828204905092915050565b600061366d82612bd4565b915061367883612bd4565b92508282019050808211156136905761368f613591565b5b92915050565b7f43616e6e6f7420657863656564206d617820746f74616c20737570706c790000600082015250565b60006136cc601e83612a8e565b91506136d782613696565b602082019050919050565b600060208201905081810360008301526136fb816136bf565b9050919050565b600061370d82612bd4565b91507fffffffffffffffffffffffffffffffffffffffffffffffffffffffffffffffff820361373f5761373e613591565b5b600182019050919050565b7f4a75737420737461727465640000000000000000000000000000000000000000600082015250565b6000613780600c83612a8e565b915061378b8261374a565b602082019050919050565b600060208201905081810360008301526137af81613773565b9050919050565b7f496e73756666696369656e742066756e64730000000000000000000000000000600082015250565b60006137ec601283612a8e565b91506137f7826137b6565b602082019050919050565b6000602082019050818103600083015261381b816137df565b9050919050565b7f4e6f7420656e6f7567682073686172657320617661696c61626c650000000000600082015250565b6000613858601b83612a8e565b915061386382613822565b602082019050919050565b600060208201905081810360008301526138878161384b565b9050919050565b7f4265666f7265207472616e7366657220746f20636f6d70616e7927732077616c60008201527f6c65740000000000000000000000000000000000000000000000000000000000602082015250565b60006138ea602383612a8e565b91506138f58261388e565b604082019050919050565b60006020820190508181036000830152613919816138dd565b9050919050565b7f4166746572207472616e7366657220746f20636f6d70616e7927732077616c6c60008201527f6574000000000000000000000000000000000000000000000000000000000000602082015250565b600061397c602283612a8e565b915061398782613920565b604082019050919050565b600060208201905081810360008301526139ab8161396f565b9050919050565b60006139bd82612bd4565b91506139c883612bd4565b92508282039050818111156139e0576139df613591565b5b92915050565b7f416674657220726566756e64696e672065786365737320455448000000000000600082015250565b6000613a1c601a83612a8e565b9150613a27826139e6565b602082019050919050565b60006020820190508181036000830152613a4b81613a0f565b9050919050565b60008160011c9050919050565b6000808291508390505b6001851115613aa957808604811115613a8557613a84613591565b5b6001851615613a945780820291505b8081029050613aa285613a52565b9450613a69565b94509492505050565b600082613ac25760019050613b7e565b81613ad05760009050613b7e565b8160018114613ae65760028114613af057613b1f565b6001915050613b7e565b60ff841115613b0257613b01613591565b5b8360020a915084821115613b1957613b18613591565b5b50613b7e565b5060208310610133831016604e8410600b8410161715613b545782820a905083811115613b4f57613b4e613591565b5b613b7e565b613b618484846001613a5f565b92509050818404811115613b7857613b77613591565b5b81810290505b9392505050565b6000613b9082612bd4565b9150613b9b83612d57565b9250613bc87fffffffffffffffffffffffffffffffffffffffffffffffffffffffffffffffff8484613ab2565b905092915050565b7f4166746572207472616e7366657272696e6720746f6b656e7300000000000000600082015250565b6000613c06601983612a8e565b9150613c1182613bd0565b602082019050919050565b60006020820190508181036000830152613c3581613bf9565b9050919050565b7f5472616e73666572206e6f7420617070726f7665640000000000000000000000600082015250565b6000613c72601583612a8e565b9150613c7d82613c3c565b602082019050919050565b60006020820190508181036000830152613ca181613c65565b9050919050565b7f4f6e6c79207468652062757965722063616e20636f6d706c657465207468652060008201527f7472616e73666572000000000000000000000000000000000000000000000000602082015250565b6000613d04602883612a8e565b9150613d0f82613ca8565b604082019050919050565b60006020820190508181036000830152613d3381613cf7565b9050919050565b6000606082019050613d4f6000830186612f4c565b613d5c6020830185612c80565b613d696040830184612c80565b94935050505056fea264697066735822122098a709e04c84dfc258f2781e0485f6b76c1e6f0bb5ccbb5380221823baf9fbdf64736f6c63430008140033",
  "linkReferences": {},
  "deployedLinkReferences": {}
}